{
  "_format": "hh-sol-artifact-1",
  "contractName": "PaymentGateway",
  "sourceName": "contracts/PaymentGateway.sol",
  "abi": [
    {
      "inputs": [],
      "stateMutability": "nonpayable",
      "type": "constructor"
    },
    {
      "anonymous": false,
      "inputs": [
        {
          "indexed": true,
          "internalType": "address",
          "name": "from",
          "type": "address"
        },
        {
          "indexed": false,
          "internalType": "uint256",
          "name": "amount",
          "type": "uint256"
        }
      ],
      "name": "PaymentReceived",
      "type": "event"
    },
    {
      "anonymous": false,
      "inputs": [
        {
          "indexed": true,
          "internalType": "address",
          "name": "to",
          "type": "address"
        },
        {
          "indexed": false,
          "internalType": "uint256",
          "name": "amount",
          "type": "uint256"
        }
      ],
      "name": "PaymentSent",
      "type": "event"
    },
    {
      "inputs": [
        {
          "internalType": "address",
          "name": "",
          "type": "address"
        }
      ],
      "name": "balances",
      "outputs": [
        {
          "internalType": "uint256",
          "name": "",
          "type": "uint256"
        }
      ],
      "stateMutability": "view",
      "type": "function"
    },
    {
      "inputs": [],
      "name": "deposit",
      "outputs": [],
      "stateMutability": "payable",
      "type": "function"
    },
    {
      "inputs": [],
      "name": "getAllPayments",
      "outputs": [
        {
          "components": [
            {
              "internalType": "address",
              "name": "sender",
              "type": "address"
            },
            {
              "internalType": "uint256",
              "name": "amount",
              "type": "uint256"
            },
            {
              "internalType": "uint256",
              "name": "timestamp",
              "type": "uint256"
            }
          ],
          "internalType": "struct PaymentGateway.Payment[]",
          "name": "",
          "type": "tuple[]"
        }
      ],
      "stateMutability": "view",
      "type": "function"
    },
    {
      "inputs": [
        {
          "internalType": "address",
          "name": "account",
          "type": "address"
        }
      ],
      "name": "getBalance",
      "outputs": [
        {
          "internalType": "uint256",
          "name": "",
          "type": "uint256"
        }
      ],
      "stateMutability": "view",
      "type": "function"
    },
    {
      "inputs": [],
      "name": "owner",
      "outputs": [
        {
          "internalType": "address",
          "name": "",
          "type": "address"
        }
      ],
      "stateMutability": "view",
      "type": "function"
    },
    {
      "inputs": [
        {
          "internalType": "uint256",
          "name": "",
          "type": "uint256"
        }
      ],
      "name": "payments",
      "outputs": [
        {
          "internalType": "address",
          "name": "sender",
          "type": "address"
        },
        {
          "internalType": "uint256",
          "name": "amount",
          "type": "uint256"
        },
        {
          "internalType": "uint256",
          "name": "timestamp",
          "type": "uint256"
        }
      ],
      "stateMutability": "view",
      "type": "function"
    },
    {
      "inputs": [
        {
          "internalType": "address",
          "name": "newOwner",
          "type": "address"
        }
      ],
      "name": "transferOwnership",
      "outputs": [],
      "stateMutability": "nonpayable",
      "type": "function"
    },
    {
      "inputs": [
        {
          "internalType": "uint256",
          "name": "amount",
          "type": "uint256"
        }
      ],
      "name": "withdraw",
      "outputs": [],
      "stateMutability": "nonpayable",
      "type": "function"
    }
  ],
  "bytecode": "0x608060405234801561001057600080fd5b50336000806101000a81548173ffffffffffffffffffffffffffffffffffffffff021916908373ffffffffffffffffffffffffffffffffffffffff160217905550610bbb806100606000396000f3fe60806040526004361061007b5760003560e01c8063d0e30db01161004e578063d0e30db014610150578063f2fde38b1461015a578063f8b2cb4f14610183578063f8defa3c146101c05761007b565b806327e235e3146100805780632e1a7d4d146100bd57806387d81789146100e65780638da5cb5b14610125575b600080fd5b34801561008c57600080fd5b506100a760048036038101906100a2919061075d565b6101eb565b6040516100b491906109fd565b60405180910390f35b3480156100c957600080fd5b506100e460048036038101906100df9190610786565b610203565b005b3480156100f257600080fd5b5061010d60048036038101906101089190610786565b610373565b60405161011c93929190610964565b60405180910390f35b34801561013157600080fd5b5061013a6103cd565b6040516101479190610949565b60405180910390f35b6101586103f1565b005b34801561016657600080fd5b50610181600480360381019061017c919061075d565b610550565b005b34801561018f57600080fd5b506101aa60048036038101906101a5919061075d565b610621565b6040516101b791906109fd565b60405180910390f35b3480156101cc57600080fd5b506101d561066a565b6040516101e2919061099b565b60405180910390f35b60016020528060005260406000206000915090505481565b80600160003373ffffffffffffffffffffffffffffffffffffffff1673ffffffffffffffffffffffffffffffffffffffff168152602001908152602001600020541015610285576040517f08c379a000000000000000000000000000000000000000000000000000000000815260040161027c906109bd565b60405180910390fd5b80600160003373ffffffffffffffffffffffffffffffffffffffff1673ffffffffffffffffffffffffffffffffffffffff16815260200190815260200160002060008282546102d49190610ab8565b925050819055503373ffffffffffffffffffffffffffffffffffffffff166108fc829081150290604051600060405180830381858888f19350505050158015610321573d6000803e3d6000fd5b503373ffffffffffffffffffffffffffffffffffffffff167f47db2abce6d5fbcd80ffd9b4ba74dcde804a746ef732bc7f8a70fabfc912c5908260405161036891906109fd565b60405180910390a250565b6002818154811061038357600080fd5b90600052602060002090600302016000915090508060000160009054906101000a900473ffffffffffffffffffffffffffffffffffffffff16908060010154908060020154905083565b60008054906101000a900473ffffffffffffffffffffffffffffffffffffffff1681565b34600160003373ffffffffffffffffffffffffffffffffffffffff1673ffffffffffffffffffffffffffffffffffffffff16815260200190815260200160002060008282546104409190610a62565b925050819055503373ffffffffffffffffffffffffffffffffffffffff167f6ef95f06320e7a25a04a175ca677b7052bdd97131872c2192525a629f51be7703460405161048d91906109fd565b60405180910390a2600260405180606001604052803373ffffffffffffffffffffffffffffffffffffffff16815260200134815260200142815250908060018154018082558091505060019003906000526020600020906003020160009091909190915060008201518160000160006101000a81548173ffffffffffffffffffffffffffffffffffffffff021916908373ffffffffffffffffffffffffffffffffffffffff16021790555060208201518160010155604082015181600201555050565b60008054906101000a900473ffffffffffffffffffffffffffffffffffffffff1673ffffffffffffffffffffffffffffffffffffffff163373ffffffffffffffffffffffffffffffffffffffff16146105de576040517f08c379a00000000000000000000000000000000000000000000000000000000081526004016105d5906109dd565b60405180910390fd5b806000806101000a81548173ffffffffffffffffffffffffffffffffffffffff021916908373ffffffffffffffffffffffffffffffffffffffff16021790555050565b6000600160008373ffffffffffffffffffffffffffffffffffffffff1673ffffffffffffffffffffffffffffffffffffffff168152602001908152602001600020549050919050565b60606002805480602002602001604051908101604052809291908181526020016000905b8282101561072a57838290600052602060002090600302016040518060600160405290816000820160009054906101000a900473ffffffffffffffffffffffffffffffffffffffff1673ffffffffffffffffffffffffffffffffffffffff1673ffffffffffffffffffffffffffffffffffffffff168152602001600182015481526020016002820154815250508152602001906001019061068e565b50505050905090565b60008135905061074281610b57565b92915050565b60008135905061075781610b6e565b92915050565b60006020828403121561076f57600080fd5b600061077d84828501610733565b91505092915050565b60006020828403121561079857600080fd5b60006107a684828501610748565b91505092915050565b60006107bb83836108e9565b60608301905092915050565b6107d081610aec565b82525050565b6107df81610aec565b82525050565b60006107f082610a28565b6107fa8185610a40565b935061080583610a18565b8060005b8381101561083657815161081d88826107af565b975061082883610a33565b925050600181019050610809565b5085935050505092915050565b6000610850601583610a51565b91507f496e73756666696369656e742062616c616e63652e00000000000000000000006000830152602082019050919050565b6000610890602f83610a51565b91507f4f6e6c792074686520636f6e7472616374206f776e65722063616e2063616c6c60008301527f20746869732066756e6374696f6e2e00000000000000000000000000000000006020830152604082019050919050565b6060820160008201516108ff60008501826107c7565b506020820151610912602085018261092b565b506040820151610925604085018261092b565b50505050565b61093481610b1e565b82525050565b61094381610b1e565b82525050565b600060208201905061095e60008301846107d6565b92915050565b600060608201905061097960008301866107d6565b610986602083018561093a565b610993604083018461093a565b949350505050565b600060208201905081810360008301526109b581846107e5565b905092915050565b600060208201905081810360008301526109d681610843565b9050919050565b600060208201905081810360008301526109f681610883565b9050919050565b6000602082019050610a12600083018461093a565b92915050565b6000819050602082019050919050565b600081519050919050565b6000602082019050919050565b600082825260208201905092915050565b600082825260208201905092915050565b6000610a6d82610b1e565b9150610a7883610b1e565b9250827fffffffffffffffffffffffffffffffffffffffffffffffffffffffffffffffff03821115610aad57610aac610b28565b5b828201905092915050565b6000610ac382610b1e565b9150610ace83610b1e565b925082821015610ae157610ae0610b28565b5b828203905092915050565b6000610af782610afe565b9050919050565b600073ffffffffffffffffffffffffffffffffffffffff82169050919050565b6000819050919050565b7f4e487b7100000000000000000000000000000000000000000000000000000000600052601160045260246000fd5b610b6081610aec565b8114610b6b57600080fd5b50565b610b7781610b1e565b8114610b8257600080fd5b5056fea26469706673582212200caaebb4b0f3cf7aa2458776a61915261a6984b1bf0e65eff0bf60bef09f817164736f6c63430008000033",
  "linkReferences": {},
  "deployedLinkReferences": {}
}